{
    "abi": [
        {
            "type": "constructor",
            "inputs": [
                {
                    "name": "_authority",
                    "type": "address",
                    "internalType": "address"
                },
                {
                    "name": "_weth",
                    "type": "address",
                    "internalType": "address"
                },
                {
                    "name": "_merkleRoot",
                    "type": "bytes32",
                    "internalType": "bytes32"
                }
            ],
            "stateMutability": "nonpayable"
        },
        {
            "type": "receive",
            "stateMutability": "payable"
        },
        {
            "type": "function",
            "name": "EMERGENCY_WINDOW",
            "inputs": [],
            "outputs": [
                {
                    "name": "",
                    "type": "uint256",
                    "internalType": "uint256"
                }
            ],
            "stateMutability": "view"
        },
        {
            "type": "function",
            "name": "IMV",
            "inputs": [],
            "outputs": [
                {
                    "name": "",
                    "type": "uint256",
                    "internalType": "uint256"
                }
            ],
            "stateMutability": "view"
        },
        {
            "type": "function",
            "name": "MAX_DEPOSITORS",
            "inputs": [],
            "outputs": [
                {
                    "name": "",
                    "type": "uint256",
                    "internalType": "uint256"
                }
            ],
            "stateMutability": "view"
        },
        {
            "type": "function",
            "name": "TEAM_ALLOCATION",
            "inputs": [],
            "outputs": [
                {
                    "name": "",
                    "type": "uint256",
                    "internalType": "uint256"
                }
            ],
            "stateMutability": "view"
        },
        {
            "type": "function",
            "name": "TOTAL_RAISE_GOAL",
            "inputs": [],
            "outputs": [
                {
                    "name": "",
                    "type": "uint256",
                    "internalType": "uint256"
                }
            ],
            "stateMutability": "view"
        },
        {
            "type": "function",
            "name": "TOTAL_TOKENS",
            "inputs": [],
            "outputs": [
                {
                    "name": "",
                    "type": "uint256",
                    "internalType": "uint256"
                }
            ],
            "stateMutability": "view"
        },
        {
            "type": "function",
            "name": "WETH",
            "inputs": [],
            "outputs": [
                {
                    "name": "",
                    "type": "address",
                    "internalType": "address"
                }
            ],
            "stateMutability": "view"
        },
        {
            "type": "function",
            "name": "abort",
            "inputs": [],
            "outputs": [],
            "stateMutability": "nonpayable"
        },
        {
            "type": "function",
            "name": "active",
            "inputs": [],
            "outputs": [
                {
                    "name": "",
                    "type": "bool",
                    "internalType": "bool"
                }
            ],
            "stateMutability": "view"
        },
        {
            "type": "function",
            "name": "approvePresaleContract",
            "inputs": [],
            "outputs": [],
            "stateMutability": "nonpayable"
        },
        {
            "type": "function",
            "name": "authority",
            "inputs": [],
            "outputs": [
                {
                    "name": "",
                    "type": "address",
                    "internalType": "address"
                }
            ],
            "stateMutability": "view"
        },
        {
            "type": "function",
            "name": "backTeamAllocation",
            "inputs": [],
            "outputs": [],
            "stateMutability": "nonpayable"
        },
        {
            "type": "function",
            "name": "claimEmergencyWithdrawal",
            "inputs": [],
            "outputs": [],
            "stateMutability": "nonpayable"
        },
        {
            "type": "function",
            "name": "computeLeaf",
            "inputs": [
                {
                    "name": "account",
                    "type": "address",
                    "internalType": "address"
                },
                {
                    "name": "amount",
                    "type": "uint256",
                    "internalType": "uint256"
                },
                {
                    "name": "round",
                    "type": "uint256",
                    "internalType": "uint256"
                }
            ],
            "outputs": [
                {
                    "name": "",
                    "type": "bytes32",
                    "internalType": "bytes32"
                }
            ],
            "stateMutability": "pure"
        },
        {
            "type": "function",
            "name": "deployTime",
            "inputs": [],
            "outputs": [
                {
                    "name": "",
                    "type": "uint256",
                    "internalType": "uint256"
                }
            ],
            "stateMutability": "view"
        },
        {
            "type": "function",
            "name": "depositWithProof",
            "inputs": [
                {
                    "name": "amount",
                    "type": "uint256",
                    "internalType": "uint256"
                },
                {
                    "name": "maxTokens",
                    "type": "uint256",
                    "internalType": "uint256"
                },
                {
                    "name": "merkleProof",
                    "type": "bytes32[]",
                    "internalType": "bytes32[]"
                }
            ],
            "outputs": [],
            "stateMutability": "payable"
        },
        {
            "type": "function",
            "name": "depositors",
            "inputs": [
                {
                    "name": "",
                    "type": "uint256",
                    "internalType": "uint256"
                }
            ],
            "outputs": [
                {
                    "name": "",
                    "type": "address",
                    "internalType": "address"
                }
            ],
            "stateMutability": "view"
        },
        {
            "type": "function",
            "name": "deposits",
            "inputs": [
                {
                    "name": "",
                    "type": "address",
                    "internalType": "address"
                }
            ],
            "outputs": [
                {
                    "name": "tokenAmount",
                    "type": "uint256",
                    "internalType": "uint256"
                },
                {
                    "name": "ethAmount",
                    "type": "uint256",
                    "internalType": "uint256"
                },
                {
                    "name": "isETH",
                    "type": "bool",
                    "internalType": "bool"
                },
                {
                    "name": "hasVoted",
                    "type": "bool",
                    "internalType": "bool"
                },
                {
                    "name": "isEligibleForClaim",
                    "type": "bool",
                    "internalType": "bool"
                }
            ],
            "stateMutability": "view"
        },
        {
            "type": "function",
            "name": "emergencyWithdrawalActivated",
            "inputs": [],
            "outputs": [
                {
                    "name": "",
                    "type": "bool",
                    "internalType": "bool"
                }
            ],
            "stateMutability": "view"
        },
        {
            "type": "function",
            "name": "executeEmergencyWithdrawal",
            "inputs": [],
            "outputs": [],
            "stateMutability": "nonpayable"
        },
        {
            "type": "function",
            "name": "finalizeSale",
            "inputs": [],
            "outputs": [],
            "stateMutability": "nonpayable"
        },
        {
            "type": "function",
            "name": "getRemainingETH",
            "inputs": [],
            "outputs": [
                {
                    "name": "",
                    "type": "uint256",
                    "internalType": "uint256"
                }
            ],
            "stateMutability": "view"
        },
        {
            "type": "function",
            "name": "initialPrice",
            "inputs": [],
            "outputs": [
                {
                    "name": "",
                    "type": "uint256",
                    "internalType": "uint256"
                }
            ],
            "stateMutability": "view"
        },
        {
            "type": "function",
            "name": "isFirstRound",
            "inputs": [],
            "outputs": [
                {
                    "name": "",
                    "type": "bool",
                    "internalType": "bool"
                }
            ],
            "stateMutability": "view"
        },
        {
            "type": "function",
            "name": "merkleRoot",
            "inputs": [],
            "outputs": [
                {
                    "name": "",
                    "type": "bytes32",
                    "internalType": "bytes32"
                }
            ],
            "stateMutability": "view"
        },
        {
            "type": "function",
            "name": "operationalFunds",
            "inputs": [],
            "outputs": [
                {
                    "name": "",
                    "type": "uint256",
                    "internalType": "uint256"
                }
            ],
            "stateMutability": "view"
        },
        {
            "type": "function",
            "name": "pNOMA",
            "inputs": [],
            "outputs": [
                {
                    "name": "",
                    "type": "address",
                    "internalType": "contract PreNomaToken"
                }
            ],
            "stateMutability": "view"
        },
        {
            "type": "function",
            "name": "setMerkleRoot",
            "inputs": [
                {
                    "name": "_merkleRoot",
                    "type": "bytes32",
                    "internalType": "bytes32"
                }
            ],
            "outputs": [],
            "stateMutability": "nonpayable"
        },
        {
            "type": "function",
            "name": "setup",
            "inputs": [],
            "outputs": [],
            "stateMutability": "nonpayable"
        },
        {
            "type": "function",
            "name": "setupTime",
            "inputs": [],
            "outputs": [
                {
                    "name": "",
                    "type": "uint256",
                    "internalType": "uint256"
                }
            ],
            "stateMutability": "view"
        },
        {
            "type": "function",
            "name": "startSecondRound",
            "inputs": [],
            "outputs": [],
            "stateMutability": "nonpayable"
        },
        {
            "type": "function",
            "name": "teamAllocationBacked",
            "inputs": [],
            "outputs": [
                {
                    "name": "",
                    "type": "bool",
                    "internalType": "bool"
                }
            ],
            "stateMutability": "view"
        },
        {
            "type": "function",
            "name": "timeLimit",
            "inputs": [],
            "outputs": [
                {
                    "name": "",
                    "type": "uint256",
                    "internalType": "uint256"
                }
            ],
            "stateMutability": "view"
        },
        {
            "type": "function",
            "name": "tokensRemaining",
            "inputs": [],
            "outputs": [
                {
                    "name": "",
                    "type": "uint256",
                    "internalType": "uint256"
                }
            ],
            "stateMutability": "view"
        },
        {
            "type": "function",
            "name": "totalRaised",
            "inputs": [],
            "outputs": [
                {
                    "name": "",
                    "type": "uint256",
                    "internalType": "uint256"
                }
            ],
            "stateMutability": "view"
        },
        {
            "type": "function",
            "name": "voteForEmergencyWithdrawal",
            "inputs": [],
            "outputs": [],
            "stateMutability": "nonpayable"
        },
        {
            "type": "function",
            "name": "votesForEmergencyWithdrawal",
            "inputs": [],
            "outputs": [
                {
                    "name": "",
                    "type": "uint256",
                    "internalType": "uint256"
                }
            ],
            "stateMutability": "view"
        },
        {
            "type": "function",
            "name": "withdraw",
            "inputs": [],
            "outputs": [],
            "stateMutability": "nonpayable"
        },
        {
            "type": "function",
            "name": "withdrawOperationalFunds",
            "inputs": [
                {
                    "name": "amount",
                    "type": "uint256",
                    "internalType": "uint256"
                }
            ],
            "outputs": [],
            "stateMutability": "nonpayable"
        },
        {
            "type": "event",
            "name": "Aborted",
            "inputs": [],
            "anonymous": false
        },
        {
            "type": "event",
            "name": "ApprovalForPresale",
            "inputs": [
                {
                    "name": "depositor",
                    "type": "address",
                    "indexed": true,
                    "internalType": "address"
                },
                {
                    "name": "pNOMAAmount",
                    "type": "uint256",
                    "indexed": false,
                    "internalType": "uint256"
                }
            ],
            "anonymous": false
        },
        {
            "type": "event",
            "name": "Deposit",
            "inputs": [
                {
                    "name": "depositor",
                    "type": "address",
                    "indexed": true,
                    "internalType": "address"
                },
                {
                    "name": "tokenAmount",
                    "type": "uint256",
                    "indexed": false,
                    "internalType": "uint256"
                },
                {
                    "name": "ethAmount",
                    "type": "uint256",
                    "indexed": false,
                    "internalType": "uint256"
                },
                {
                    "name": "isETH",
                    "type": "bool",
                    "indexed": false,
                    "internalType": "bool"
                }
            ],
            "anonymous": false
        },
        {
            "type": "event",
            "name": "EmergencyWithdrawal",
            "inputs": [
                {
                    "name": "depositor",
                    "type": "address",
                    "indexed": true,
                    "internalType": "address"
                },
                {
                    "name": "ethAmount",
                    "type": "uint256",
                    "indexed": false,
                    "internalType": "uint256"
                },
                {
                    "name": "isETH",
                    "type": "bool",
                    "indexed": false,
                    "internalType": "bool"
                },
                {
                    "name": "tokenAmount",
                    "type": "uint256",
                    "indexed": false,
                    "internalType": "uint256"
                }
            ],
            "anonymous": false
        },
        {
            "type": "event",
            "name": "EmergencyWithdrawalActivated",
            "inputs": [],
            "anonymous": false
        },
        {
            "type": "event",
            "name": "EmergencyWithdrawalVote",
            "inputs": [
                {
                    "name": "voter",
                    "type": "address",
                    "indexed": true,
                    "internalType": "address"
                }
            ],
            "anonymous": false
        },
        {
            "type": "event",
            "name": "NewRoundStarted",
            "inputs": [
                {
                    "name": "newPrice",
                    "type": "uint256",
                    "indexed": false,
                    "internalType": "uint256"
                }
            ],
            "anonymous": false
        },
        {
            "type": "event",
            "name": "RoundFinished",
            "inputs": [
                {
                    "name": "tokensRemaining",
                    "type": "uint256",
                    "indexed": false,
                    "internalType": "uint256"
                }
            ],
            "anonymous": false
        },
        {
            "type": "event",
            "name": "Setup",
            "inputs": [
                {
                    "name": "timestamp",
                    "type": "uint256",
                    "indexed": false,
                    "internalType": "uint256"
                }
            ],
            "anonymous": false
        },
        {
            "type": "event",
            "name": "TeamAllocationBacked",
            "inputs": [
                {
                    "name": "ethForTeamAllocation",
                    "type": "uint256",
                    "indexed": false,
                    "internalType": "uint256"
                }
            ],
            "anonymous": false
        },
        {
            "type": "event",
            "name": "TokensClaimed",
            "inputs": [
                {
                    "name": "user",
                    "type": "address",
                    "indexed": true,
                    "internalType": "address"
                },
                {
                    "name": "tokenAmount",
                    "type": "uint256",
                    "indexed": false,
                    "internalType": "uint256"
                },
                {
                    "name": "ethAmount",
                    "type": "uint256",
                    "indexed": false,
                    "internalType": "uint256"
                }
            ],
            "anonymous": false
        },
        {
            "type": "error",
            "name": "AllowanceExceeded",
            "inputs": []
        },
        {
            "type": "error",
            "name": "AlreadyVoted",
            "inputs": [
                {
                    "name": "voter",
                    "type": "address",
                    "internalType": "address"
                }
            ]
        },
        {
            "type": "error",
            "name": "DepositorAlreadyExists",
            "inputs": []
        },
        {
            "type": "error",
            "name": "ETHSentWithTokenDeposit",
            "inputs": []
        },
        {
            "type": "error",
            "name": "ETHTransferFailed",
            "inputs": []
        },
        {
            "type": "error",
            "name": "EmergencyWindowPassed",
            "inputs": []
        },
        {
            "type": "error",
            "name": "EmergencyWithdrawalNotActivated",
            "inputs": []
        },
        {
            "type": "error",
            "name": "ExceedsMaxTokenAllocation",
            "inputs": []
        },
        {
            "type": "error",
            "name": "InsufficientBalance",
            "inputs": []
        },
        {
            "type": "error",
            "name": "InsufficientETHAmount",
            "inputs": []
        },
        {
            "type": "error",
            "name": "InsufficientOperationalFunds",
            "inputs": [
                {
                    "name": "requested",
                    "type": "uint256",
                    "internalType": "uint256"
                },
                {
                    "name": "available",
                    "type": "uint256",
                    "internalType": "uint256"
                }
            ]
        },
        {
            "type": "error",
            "name": "InvalidAuthority",
            "inputs": [
                {
                    "name": "caller",
                    "type": "address",
                    "internalType": "address"
                }
            ]
        },
        {
            "type": "error",
            "name": "InvalidCaller",
            "inputs": []
        },
        {
            "type": "error",
            "name": "MaxDepositorsReached",
            "inputs": []
        },
        {
            "type": "error",
            "name": "NoDepositFound",
            "inputs": [
                {
                    "name": "depositor",
                    "type": "address",
                    "internalType": "address"
                }
            ]
        },
        {
            "type": "error",
            "name": "NotEligibleForClaim",
            "inputs": [
                {
                    "name": "depositor",
                    "type": "address",
                    "internalType": "address"
                }
            ]
        },
        {
            "type": "error",
            "name": "NotEnoughTokensRemaining",
            "inputs": []
        },
        {
            "type": "error",
            "name": "PoolAlreadySetup",
            "inputs": []
        },
        {
            "type": "error",
            "name": "PoolNotSetup",
            "inputs": []
        },
        {
            "type": "error",
            "name": "ReentrancyGuardReentrantCall",
            "inputs": []
        },
        {
            "type": "error",
            "name": "SaleNotFinalized",
            "inputs": []
        },
        {
            "type": "error",
            "name": "TeamAllocationAlreadyBacked",
            "inputs": []
        },
        {
            "type": "error",
            "name": "TimeLimitNotReached",
            "inputs": []
        },
        {
            "type": "error",
            "name": "TokenTransferFailed",
            "inputs": []
        }
    ],
    "bytecode": {
        "object": "0x610100604052651977420dc00060c052600b805462ffffff1916620100011790553480156200002d57600080fd5b5060405162002c1338038062002c13833981016040819052620000509162000153565b60016000556001600160a01b0383166200007d576040516348f5c3ed60e01b815260040160405180910390fd5b6001600160a01b038216620000a5576040516348f5c3ed60e01b815260040160405180910390fd5b6001600160a01b03831660a052651977420dc00060c052604051620000ca9062000128565b604051809103906000f080158015620000e7573d6000803e3d6000fd5b506001600160a01b0390811660e0526a14adf4b7320334b9000000600755600180546001600160a01b0319169390911692909217909155600a555062000194565b610be2806200203183390190565b80516001600160a01b03811681146200014e57600080fd5b919050565b6000806000606084860312156200016957600080fd5b620001748462000136565b9250620001846020850162000136565b9150604084015190509250925092565b60805160a05160c05160e051611e08620002296000396000818161035d0152818161097101528181610b4e01528181611122015281816113960152611a8e0152600081816103a901528181611336015281816114c8015281816118b701526118ee0152600081816105ee01528181610ecc01526116b80152600081816104e101528181610efe015261155f0152611e086000f3fe6080604052600436106102345760003560e01c80637a40624b1161012e578063d38d928e116100ab578063f83a1cc71161006f578063f83a1cc7146106c8578063fc7e286d146106e8578063fd99cbed14610769578063fee5e35514610788578063ffa2979d1461079e57600080fd5b8063d38d928e14610653578063d549991c14610669578063e4b2fb791461067e578063e67bc5541461069e578063f4993bbd146106b357600080fd5b8063ba0bba40116100f2578063ba0bba40146105c7578063bf7e214f146105dc578063c08d1fe514610610578063c5c4744c14610627578063c8b081251461063d57600080fd5b80637a40624b146104cf5780637cb6475914610503578063805e99e014610523578063826544931461053d578063ad5c4648146105a757600080fd5b80632eb4a7ab116101bc5780633cde23fc116101805780633cde23fc1461045f57806358a687ec146104755780635fcc5adf1461048a5780636015f876146104a05780636937bc49146104ba57600080fd5b80632eb4a7ab146103f557806331c19d501461040b5780633378213e1461042257806335a063b4146104355780633ccfd60b1461044a57600080fd5b80631607ef52116102035780631607ef521461032c5780631a20ded11461034b5780631d0806ae146103975780632101c3d1146103cb57806323ab4734146103e057600080fd5b806302fb0c5e146102995780630869db30146102ce57806309b056f8146102e85780630b7abf77146102ff57600080fd5b366102945760405162461bcd60e51b815260206004820152602560248201527f557365206465706f7369745769746850726f6f66282920746f206465706f73696044820152640e8408aa8960db1b60648201526084015b60405180910390fd5b600080fd5b3480156102a557600080fd5b50600b546102b99062010000900460ff1681565b60405190151581526020015b60405180910390f35b3480156102da57600080fd5b506006546102b99060ff1681565b3480156102f457600080fd5b506102fd6107bb565b005b34801561030b57600080fd5b5061031e6a14adf4b7320334b900000081565b6040519081526020016102c5565b34801561033857600080fd5b50600b546102b990610100900460ff1681565b34801561035757600080fd5b5061037f7f000000000000000000000000000000000000000000000000000000000000000081565b6040516001600160a01b0390911681526020016102c5565b3480156103a357600080fd5b5061031e7f000000000000000000000000000000000000000000000000000000000000000081565b3480156103d757600080fd5b506102fd610a31565b3480156103ec57600080fd5b506102fd610b4c565b34801561040157600080fd5b5061031e600a5481565b34801561041757600080fd5b5061031e6202a30081565b6102fd610430366004611bed565b610d05565b34801561044157600080fd5b506102fd610ec1565b34801561045657600080fd5b506102fd610f7b565b34801561046b57600080fd5b5061031e60055481565b34801561048157600080fd5b506102fd6111be565b34801561049657600080fd5b5061031e60045481565b3480156104ac57600080fd5b5061031e651319718a500081565b3480156104c657600080fd5b5061031e611234565b3480156104db57600080fd5b5061031e7f000000000000000000000000000000000000000000000000000000000000000081565b34801561050f57600080fd5b506102fd61051e366004611c70565b600a55565b34801561052f57600080fd5b50600b546102b99060ff1681565b34801561054957600080fd5b5061031e610558366004611ca5565b6040516bffffffffffffffffffffffff19606085901b16602082015260348101839052605481018290526000906074016040516020818303038152906040528051906020012090509392505050565b3480156105b357600080fd5b5060015461037f906001600160a01b031681565b3480156105d357600080fd5b506102fd611256565b3480156105e857600080fd5b5061037f7f000000000000000000000000000000000000000000000000000000000000000081565b34801561061c57600080fd5b5061031e6212750081565b34801561063357600080fd5b5061031e60085481565b34801561064957600080fd5b5061031e60075481565b34801561065f57600080fd5b5061031e60095481565b34801561067557600080fd5b506102fd6112ba565b34801561068a57600080fd5b5061037f610699366004611c70565b611445565b3480156106aa57600080fd5b506102fd61146f565b3480156106bf57600080fd5b506102fd61152b565b3480156106d457600080fd5b506102fd6106e3366004611c70565b61162a565b3480156106f457600080fd5b50610739610703366004611cd8565b600260208190526000918252604090912080546001820154919092015460ff808216916101008104821691620100009091041685565b6040805195865260208601949094529115159284019290925290151560608301521515608082015260a0016102c5565b34801561077557600080fd5b5061031e6a01a784379d99db4200000081565b34801561079457600080fd5b5061031e6103e881565b3480156107aa57600080fd5b5061031e6825f273933db570000081565b6107c3611755565b3360009081526002602081905260409091209081015462010000900460ff166108015760405163aa358a1960e01b815233600482015260240161028b565b80600101546000036108285760405163452d36b760e11b815233600482015260240161028b565b600181018054825460009283905591835560028301805462ff000019811690915590919060ff16156108c357604051600090339084908381818185875af1925050503d8060008114610896576040519150601f19603f3d011682016040523d82523d6000602084013e61089b565b606091505b50509050806108bd5760405163b12d13eb60e01b815260040160405180910390fd5b50610955565b60015460405163a9059cbb60e01b8152336004820152602481018490526001600160a01b039091169063a9059cbb906044016020604051808303816000875af1158015610914573d6000803e3d6000fd5b505050506040513d601f19601f820116820180604052508101906109389190611cf3565b6109555760405163022e258160e11b815260040160405180910390fd5b604051632770a7eb60e21b8152336004820152602481018290527f00000000000000000000000000000000000000000000000000000000000000006001600160a01b031690639dc29fac90604401600060405180830381600087803b1580156109bd57600080fd5b505af11580156109d1573d6000803e3d6000fd5b5050505060028301546040805184815260ff90921615156020830152810182905233907f53c9b48d3cec0a7cc5af5de1248ef8e4a3ef6a8575aad276c094c9fa803cc9ea906060015b60405180910390a2505050610a2f6001600055565b565b600b54610100900460ff1615610a5a5760405163fa919d1b60e01b815260040160405180910390fd5b6825f273933db57000006008541015610a86576040516303ba962560e51b815260040160405180910390fd5b6000670de0b6b3a7640000610aac651319718a50006a01a784379d99db42000000611d2b565b610ab69190611d42565b9050806009541015610ae9576009546040516396fbe4dd60e01b815261028b918391600401918252602082015260400190565b8060096000828254610afb9190611d64565b9091555050600b805461ff0019166101001790556040517f7fce5a4a84b7784957d61fec6c1dbbb93f56e468ed3b945bf660ac3b9a466bae90610b419083815260200190565b60405180910390a150565b7f00000000000000000000000000000000000000000000000000000000000000006001600160a01b0316610b935760405163c0a51fab60e01b815260040160405180910390fd5b60065460ff1615610bb757604051630a0bf96560e41b815260040160405180910390fd5b6202a300600454610bc89190611d77565b421115610be85760405163011436d160e61b815260040160405180910390fd5b336000908152600260205260408120600101549003610c1c5760405163452d36b760e11b815233600482015260240161028b565b3360009081526002602081905260409091200154610100900460ff1615610c5857604051633512759d60e21b815233600482015260240161028b565b336000908152600260208190526040822001805461ff0019166101001790556005805491610c8583611d8a565b909155505060405133907fb61f579cdbee7e6ad9ec665a55934cb86b576db107820ba37b913b16cd84cd7e90600090a2600354610cc490600290611d42565b6005541115610a2f576006805460ff191660011790556040517fb393fd931ce24883720400540cc9363d26eff05890a25a4de8e14293f945b40990600090a1565b6040516bffffffffffffffffffffffff193360601b16602082015260348101859052600090605401604051602081830303815290604052805190602001209050610d8683838080602002602001604051908101604052809392919081815260200183836020028082843760009201919091525050600a54915084905061177f565b610dc95760405162461bcd60e51b815260206004820152601460248201527324b73b30b634b21036b2b935b63290383937b7b360611b604482015260640161028b565b3415801590610df757853414610df257604051633b38932f60e11b815260040160405180910390fd5b610eae565b3415610e16576040516351fe1bcb60e01b815260040160405180910390fd5b600154604051636eb1769f60e11b81523360048201523060248201526000916001600160a01b03169063dd62ed3e90604401602060405180830381865afa158015610e65573d6000803e3d6000fd5b505050506040513d601f19601f82011682018060405250810190610e899190611da3565b905086811015610eac5760405163c45cb51360e01b815260040160405180910390fd5b505b610eb9868683611795565b505050505050565b336001600160a01b037f00000000000000000000000000000000000000000000000000000000000000001614801590610f265750610f22621275007f0000000000000000000000000000000000000000000000000000000000000000611d77565b4211155b15610f44576040516348f5c3ed60e01b815260040160405180910390fd5b600b805462ff0000191690556040517f72c874aeff0b183a56e2b79c71b46e1aed4dee5e09862134b8821ba2fddbf8bf90600090a1565b610f83611755565b3360009081526002602052604081206001810154909103610fb95760405163452d36b760e11b815233600482015260240161028b565b6825f273933db57000006008541015610fe5576040516303ba962560e51b815260040160405180910390fd5b60018101805482546000808555909255600283015490919060ff161561107457604051600090339084908381818185875af1925050503d8060008114611047576040519150601f19603f3d011682016040523d82523d6000602084013e61104c565b606091505b505090508061106e5760405163b12d13eb60e01b815260040160405180910390fd5b50611106565b60015460405163a9059cbb60e01b8152336004820152602481018490526001600160a01b039091169063a9059cbb906044016020604051808303816000875af11580156110c5573d6000803e3d6000fd5b505050506040513d601f19601f820116820180604052508101906110e99190611cf3565b6111065760405163022e258160e11b815260040160405180910390fd5b604051632770a7eb60e21b8152336004820152602481018290527f00000000000000000000000000000000000000000000000000000000000000006001600160a01b031690639dc29fac90604401600060405180830381600087803b15801561116e57600080fd5b505af1158015611182573d6000803e3d6000fd5b505060408051848152602081018690523393507f9923b4306c6c030f2bdfbf156517d5983b87e15b96176da122cd4f2effa4ba7b925001610a1a565b6000670de0b6b3a76400006111e4651319718a50006a14adf4b7320334b9000000611d2b565b6111ee9190611d42565b9050806008546111fe9190611d64565b6009556007546040519081527f74ef25ef6b332a2fbbe7eb8b4108e0fe842a929d34c52a2ea4ca1a0f1524f10790602001610b41565b60006825f273933db5700000600854101561124f5750600090565b5060095490565b6001546001600160a01b031661127f5760405163c0a51fab60e01b815260040160405180910390fd5b4260048190556040519081527fd6482ddf6a6aec5191bcd07bbd173db0c8d9ce68d9dcd9027bef1eb2dd79c8029060200160405180910390a1565b336000908152600260208181526040808420815160a08101835281548152600182015493810184905293015460ff808216151592850192909252610100810482161515606085015262010000900416151560808301529091036113325760405163452d36b760e11b815233600482015260240161028b565b60007f00000000000000000000000000000000000000000000000000000000000000008260200151670de0b6b3a764000061136d9190611d2b565b6113779190611d42565b60405163095ea7b360e01b8152306004820152602481018290529091507f00000000000000000000000000000000000000000000000000000000000000006001600160a01b03169063095ea7b3906044016020604051808303816000875af11580156113e7573d6000803e3d6000fd5b505050506040513d601f19601f8201168201806040525081019061140b9190611cf3565b5060405181815233907f61bd8ab727b7a4c3a1ccedd0131bdf671b8c79624a92f241abe6c2d34e33707e9060200160405180910390a25050565b6003818154811061145557600080fd5b6000918252602090912001546001600160a01b0316905081565b600b5460ff16611492576040516348f5c3ed60e01b815260040160405180910390fd5b6007546000036114b557604051634b24df6d60e11b815260040160405180910390fd5b600b805460ff19169055600060646114ee7f0000000000000000000000000000000000000000000000000000000000000000606e611d2b565b6114f89190611d42565b90507fae4cf40c31a833f14b2aee71da8cb55d5fd1944a9ed5b7696022328921f6e31781604051610b4191815260200190565b611533611755565b60065460ff1661155657604051630a0bf96560e41b815260040160405180910390fd5b611583621275007f0000000000000000000000000000000000000000000000000000000000000000611d77565b4210156115a3576040516396672aa960e01b815260040160405180910390fd5b60005b600354811015611615576000600382815481106115c5576115c5611dbc565b60009182526020808320909101546001600160a01b0316808352600290915260409091206001810154919250901561160b5760028101805462ff00001916620100001790555b50506001016115a6565b506006805460ff19169055610a2f6001600055565b6825f273933db57000006008541015611656576040516303ba962560e51b815260040160405180910390fd5b600954811115611687576009546040516396fbe4dd60e01b815261028b918391600401918252602082015260400190565b80600960008282546116999190611d64565b909155505060015460405163a9059cbb60e01b81526001600160a01b037f000000000000000000000000000000000000000000000000000000000000000081166004830152602482018490529091169063a9059cbb906044016020604051808303816000875af1158015611711573d6000803e3d6000fd5b505050506040513d601f19601f820116820180604052508101906117359190611cf3565b6117525760405163022e258160e11b815260040160405180910390fd5b50565b60026000540361177857604051633ee5aeb560e01b815260040160405180910390fd5b6002600055565b60008261178c8584611b76565b14949350505050565b826000036117b657604051633b38932f60e11b815260040160405180910390fd5b6003546103e8116117da5760405163192e497760e21b815260040160405180910390fd5b336000908152600260205260409020600101541561180b5760405163b6c8f4fb60e01b815260040160405180910390fd5b6001546040516323b872dd60e01b8152336004820152306024820152604481018590526001600160a01b03909116906323b872dd906064016020604051808303816000875af1158015611862573d6000803e3d6000fd5b505050506040513d601f19601f820116820180604052508101906118869190611cf3565b6118a35760405163022e258160e11b815260040160405180910390fd5b600b5460009060ff166118ec5760646118dd7f0000000000000000000000000000000000000000000000000000000000000000606e611d2b565b6118e79190611d42565b61190e565b7f00000000000000000000000000000000000000000000000000000000000000005b905060008161192586670de0b6b3a7640000611d2b565b61192f9190611d42565b90508381111561195257604051630cb3c26f60e41b815260040160405180910390fd5b60075481111561197557604051634b24df6d60e11b815260040160405180910390fd5b6040805160a081018252828152602080820188815286151583850190815260006060850181815260808601828152338084526002968790529783209651875593516001878101919091559251959094018054945193511515620100000262ff0000199415156101000261ff00199715159790971661ffff199096169590951795909517929092169290921790925560038054918201815582527fc2575a0e9e593c00f959f8c92f12db2869c3395a3b0502d05e2516446f71f85b0180546001600160a01b03191690921790915560078054839290611a54908490611d64565b925050819055508460086000828254611a6d9190611d77565b909155505060405163a9059cbb60e01b8152336004820152602481018290527f00000000000000000000000000000000000000000000000000000000000000006001600160a01b03169063a9059cbb906044016020604051808303816000875af1158015611adf573d6000803e3d6000fd5b505050506040513d601f19601f82011682018060405250810190611b039190611cf3565b50604080518281526020810187905284151581830152905133917f6dbb6056a2fff319358e6dd7d0d72cb3baa992cdcc7e120fb0a32cd1601840e5919081900360600190a26007541580611b6257506825f273933db570000060085410155b15611b6f57611b6f6111be565b5050505050565b600081815b8451811015611bb157611ba782868381518110611b9a57611b9a611dbc565b6020026020010151611bbb565b9150600101611b7b565b5090505b92915050565b6000818310611bd7576000828152602084905260409020611be6565b60008381526020839052604090205b9392505050565b60008060008060608587031215611c0357600080fd5b8435935060208501359250604085013567ffffffffffffffff80821115611c2957600080fd5b818701915087601f830112611c3d57600080fd5b813581811115611c4c57600080fd5b8860208260051b8501011115611c6157600080fd5b95989497505060200194505050565b600060208284031215611c8257600080fd5b5035919050565b80356001600160a01b0381168114611ca057600080fd5b919050565b600080600060608486031215611cba57600080fd5b611cc384611c89565b95602085013595506040909401359392505050565b600060208284031215611cea57600080fd5b611be682611c89565b600060208284031215611d0557600080fd5b81518015158114611be657600080fd5b634e487b7160e01b600052601160045260246000fd5b8082028115828204841417611bb557611bb5611d15565b600082611d5f57634e487b7160e01b600052601260045260246000fd5b500490565b81810381811115611bb557611bb5611d15565b80820180821115611bb557611bb5611d15565b600060018201611d9c57611d9c611d15565b5060010190565b600060208284031215611db557600080fd5b5051919050565b634e487b7160e01b600052603260045260246000fdfea26469706673582212208b35cdf52fa0323d12e377e4a30317ada952e585739c85234efb8bf3ca8efa7f64736f6c6343000817003360806040523480156200001157600080fd5b506040518060400160405280600e81526020016d283932902737b6b0902a37b5b2b760911b81525060405180604001604052806006815260200165702d4e4f4d4160d01b8152508160039081620000699190620002c9565b506004620000788282620002c9565b5050600580546001600160a01b03191633908117909155620000a791506a14adf4b7320334b9000000620000ad565b620003bd565b6001600160a01b038216620000dd5760405163ec442f0560e01b8152600060048201526024015b60405180910390fd5b620000eb60008383620000ef565b5050565b6001600160a01b0383166200011e57806002600082825462000112919062000395565b90915550620001929050565b6001600160a01b03831660009081526020819052604090205481811015620001735760405163391434e360e21b81526001600160a01b03851660048201526024810182905260448101839052606401620000d4565b6001600160a01b03841660009081526020819052604090209082900390555b6001600160a01b038216620001b057600280548290039055620001cf565b6001600160a01b03821660009081526020819052604090208054820190555b816001600160a01b0316836001600160a01b03167fddf252ad1be2c89b69c2b068fc378daa952ba7f163c4a11628f55a4df523b3ef836040516200021591815260200190565b60405180910390a3505050565b634e487b7160e01b600052604160045260246000fd5b600181811c908216806200024d57607f821691505b6020821081036200026e57634e487b7160e01b600052602260045260246000fd5b50919050565b601f821115620002c4576000816000526020600020601f850160051c810160208610156200029f5750805b601f850160051c820191505b81811015620002c057828155600101620002ab565b5050505b505050565b81516001600160401b03811115620002e557620002e562000222565b620002fd81620002f6845462000238565b8462000274565b602080601f8311600181146200033557600084156200031c5750858301515b600019600386901b1c1916600185901b178555620002c0565b600085815260208120601f198616915b82811015620003665788860151825594840194600190910190840162000345565b5085821015620003855787850151600019600388901b60f8161c191681555b5050505050600190811b01905550565b80820180821115620003b757634e487b7160e01b600052601160045260246000fd5b92915050565b61081580620003cd6000396000f3fe608060405234801561001057600080fd5b50600436106100a95760003560e01c806363d9df851161007157806363d9df851461012357806370a082311461014e57806395d89b41146101775780639dc29fac1461017f578063a9059cbb14610194578063dd62ed3e146101a757600080fd5b806306fdde03146100ae578063095ea7b3146100cc57806318160ddd146100ef57806323b872dd14610101578063313ce56714610114575b600080fd5b6100b66101e0565b6040516100c3919061065e565b60405180910390f35b6100df6100da3660046106c9565b610272565b60405190151581526020016100c3565b6002545b6040519081526020016100c3565b6100df61010f3660046106f3565b61028c565b604051601281526020016100c3565b600554610136906001600160a01b031681565b6040516001600160a01b0390911681526020016100c3565b6100f361015c36600461072f565b6001600160a01b031660009081526020819052604090205490565b6100b66102b0565b61019261018d3660046106c9565b6102bf565b005b6100df6101a23660046106c9565b61032c565b6100f36101b5366004610751565b6001600160a01b03918216600090815260016020908152604080832093909416825291909152205490565b6060600380546101ef90610784565b80601f016020809104026020016040519081016040528092919081815260200182805461021b90610784565b80156102685780601f1061023d57610100808354040283529160200191610268565b820191906000526020600020905b81548152906001019060200180831161024b57829003601f168201915b5050505050905090565b60003361028081858561033a565b60019150505b92915050565b60003361029a85828561034c565b6102a58585856103ca565b506001949350505050565b6060600480546101ef90610784565b6005546001600160a01b0316331461031e5760405162461bcd60e51b815260206004820152601e60248201527f4f6e6c792070726573616c6520636f6e74726163742063616e206275726e000060448201526064015b60405180910390fd5b6103288282610429565b5050565b6000336102808185856103ca565b610347838383600161045f565b505050565b6001600160a01b0383811660009081526001602090815260408083209386168352929052205460001981146103c457818110156103b557604051637dc7a0d960e11b81526001600160a01b03841660048201526024810182905260448101839052606401610315565b6103c48484848403600061045f565b50505050565b6001600160a01b0383166103f457604051634b637e8f60e11b815260006004820152602401610315565b6001600160a01b03821661041e5760405163ec442f0560e01b815260006004820152602401610315565b610347838383610534565b6001600160a01b03821661045357604051634b637e8f60e11b815260006004820152602401610315565b61032882600083610534565b6001600160a01b0384166104895760405163e602df0560e01b815260006004820152602401610315565b6001600160a01b0383166104b357604051634a1406b160e11b815260006004820152602401610315565b6001600160a01b03808516600090815260016020908152604080832093871683529290522082905580156103c457826001600160a01b0316846001600160a01b03167f8c5be1e5ebec7d5bd14f71427d1e84f3dd0314c0f7b2291e5b200ac8c7c3b9258460405161052691815260200190565b60405180910390a350505050565b6001600160a01b03831661055f57806002600082825461055491906107be565b909155506105d19050565b6001600160a01b038316600090815260208190526040902054818110156105b25760405163391434e360e21b81526001600160a01b03851660048201526024810182905260448101839052606401610315565b6001600160a01b03841660009081526020819052604090209082900390555b6001600160a01b0382166105ed5760028054829003905561060c565b6001600160a01b03821660009081526020819052604090208054820190555b816001600160a01b0316836001600160a01b03167fddf252ad1be2c89b69c2b068fc378daa952ba7f163c4a11628f55a4df523b3ef8360405161065191815260200190565b60405180910390a3505050565b60006020808352835180602085015260005b8181101561068c57858101830151858201604001528201610670565b506000604082860101526040601f19601f8301168501019250505092915050565b80356001600160a01b03811681146106c457600080fd5b919050565b600080604083850312156106dc57600080fd5b6106e5836106ad565b946020939093013593505050565b60008060006060848603121561070857600080fd5b610711846106ad565b925061071f602085016106ad565b9150604084013590509250925092565b60006020828403121561074157600080fd5b61074a826106ad565b9392505050565b6000806040838503121561076457600080fd5b61076d836106ad565b915061077b602084016106ad565b90509250929050565b600181811c9082168061079857607f821691505b6020821081036107b857634e487b7160e01b600052602260045260246000fd5b50919050565b8082018082111561028657634e487b7160e01b600052601160045260246000fdfea2646970667358221220e37aecf555fa4ee64e52a04d3b5a6dea54727a301b47dbb84fe906ac810ebe5464736f6c63430008170033",
        "linkReferences": {}
    },
    "methodIdentifiers": {
        "EMERGENCY_WINDOW()": "31c19d50",
        "IMV()": "6015f876",
        "MAX_DEPOSITORS()": "fee5e355",
        "TEAM_ALLOCATION()": "fd99cbed",
        "TOTAL_RAISE_GOAL()": "ffa2979d",
        "TOTAL_TOKENS()": "0b7abf77",
        "WETH()": "ad5c4648",
        "abort()": "35a063b4",
        "active()": "02fb0c5e",
        "approvePresaleContract()": "d549991c",
        "authority()": "bf7e214f",
        "backTeamAllocation()": "2101c3d1",
        "claimEmergencyWithdrawal()": "09b056f8",
        "computeLeaf(address,uint256,uint256)": "82654493",
        "deployTime()": "7a40624b",
        "depositWithProof(uint256,uint256,bytes32[])": "3378213e",
        "depositors(uint256)": "e4b2fb79",
        "deposits(address)": "fc7e286d",
        "emergencyWithdrawalActivated()": "0869db30",
        "executeEmergencyWithdrawal()": "f4993bbd",
        "finalizeSale()": "58a687ec",
        "getRemainingETH()": "6937bc49",
        "initialPrice()": "1d0806ae",
        "isFirstRound()": "805e99e0",
        "merkleRoot()": "2eb4a7ab",
        "operationalFunds()": "d38d928e",
        "pNOMA()": "1a20ded1",
        "setMerkleRoot(bytes32)": "7cb64759",
        "setup()": "ba0bba40",
        "setupTime()": "5fcc5adf",
        "startSecondRound()": "e67bc554",
        "teamAllocationBacked()": "1607ef52",
        "timeLimit()": "c08d1fe5",
        "tokensRemaining()": "c8b08125",
        "totalRaised()": "c5c4744c",
        "voteForEmergencyWithdrawal()": "23ab4734",
        "votesForEmergencyWithdrawal()": "3cde23fc",
        "withdraw()": "3ccfd60b",
        "withdrawOperationalFunds(uint256)": "f83a1cc7"
    },
    "id": 37
}